{
  "contractName": "DrugApprover",
  "abi": [
    {
      "constant": true,
      "inputs": [
        {
          "name": "",
          "type": "uint256"
        }
      ],
      "name": "drugs",
      "outputs": [
        {
          "name": "drugName",
          "type": "string"
        },
        {
          "name": "drugNumber",
          "type": "uint256"
        },
        {
          "name": "price",
          "type": "uint256"
        },
        {
          "name": "status",
          "type": "uint256"
        },
        {
          "name": "companyAddress",
          "type": "address"
        },
        {
          "name": "unitsAvailable",
          "type": "uint256"
        },
        {
          "name": "unitsSold",
          "type": "uint256"
        },
        {
          "name": "timeInSystem",
          "type": "uint256"
        }
      ],
      "payable": false,
      "stateMutability": "view",
      "type": "function"
    },
    {
      "inputs": [],
      "payable": false,
      "stateMutability": "nonpayable",
      "type": "constructor"
    },
    {
      "anonymous": false,
      "inputs": [
        {
          "indexed": false,
          "name": "drugNum",
          "type": "uint256"
        }
      ],
      "name": "drugSubmittal",
      "type": "event"
    },
    {
      "anonymous": false,
      "inputs": [
        {
          "indexed": false,
          "name": "drugNum",
          "type": "uint256"
        }
      ],
      "name": "Buy",
      "type": "event"
    },
    {
      "constant": false,
      "inputs": [
        {
          "name": "_name",
          "type": "string"
        },
        {
          "name": "_price",
          "type": "uint256"
        },
        {
          "name": "_unitsAvailable",
          "type": "uint256"
        }
      ],
      "name": "submitDrugForApproval",
      "outputs": [],
      "payable": false,
      "stateMutability": "nonpayable",
      "type": "function"
    },
    {
      "constant": false,
      "inputs": [
        {
          "name": "_drugNum",
          "type": "uint256"
        }
      ],
      "name": "buyDrug",
      "outputs": [],
      "payable": true,
      "stateMutability": "payable",
      "type": "function"
    },
    {
      "constant": false,
      "inputs": [
        {
          "name": "_drugNumber",
          "type": "uint256"
        }
      ],
      "name": "approveDrug",
      "outputs": [],
      "payable": false,
      "stateMutability": "nonpayable",
      "type": "function"
    },
    {
      "constant": true,
      "inputs": [
        {
          "name": "_drugNumber",
          "type": "uint256"
        }
      ],
      "name": "getDrug",
      "outputs": [
        {
          "name": "drugName",
          "type": "string"
        },
        {
          "name": "drugNum",
          "type": "uint256"
        },
        {
          "name": "price",
          "type": "uint256"
        },
        {
          "name": "status",
          "type": "uint256"
        },
        {
          "name": "seller",
          "type": "address"
        },
        {
          "name": "buyer",
          "type": "address"
        },
        {
          "name": "unitsSold",
          "type": "uint256"
        },
        {
          "name": "unitsAvailable",
          "type": "uint256"
        }
      ],
      "payable": false,
      "stateMutability": "view",
      "type": "function"
    }
  ],
  "bytecode": "0x608060405234801561001057600080fd5b50336000806101000a81548173ffffffffffffffffffffffffffffffffffffffff021916908373ffffffffffffffffffffffffffffffffffffffff160217905550600060018190555061012c600281905550610a62806100716000396000f30060806040526004361061006d576000357c0100000000000000000000000000000000000000000000000000000000900463ffffffff1680631395d0f214610072578063b8840d3d1461009f578063d11daa6a146101ce578063e5500acb146101ee578063fca5e61e1461026b575b600080fd5b34801561007e57600080fd5b5061009d6004803603810190808035906020019092919050505061036e565b005b3480156100ab57600080fd5b506100ca60048036038101908080359060200190929190505050610423565b60405180806020018981526020018881526020018781526020018673ffffffffffffffffffffffffffffffffffffffff1673ffffffffffffffffffffffffffffffffffffffff1681526020018573ffffffffffffffffffffffffffffffffffffffff1673ffffffffffffffffffffffffffffffffffffffff16815260200184815260200183815260200182810382528a818151815260200191508051906020019080838360005b8381101561018c578082015181840152602081019050610171565b50505050905090810190601f1680156101b95780820380516001836020036101000a031916815260200191505b50995050505050505050505060405180910390f35b6101ec60048036038101908080359060200190929190505050610581565b005b3480156101fa57600080fd5b50610269600480360381019080803590602001908201803590602001908080601f01602080910402602001604051908101604052809392919081815260200183838082843782019150505050505091929192908035906020019092919080359060200190929190505050610730565b005b34801561027757600080fd5b5061029660048036038101908080359060200190929190505050610891565b60405180806020018981526020018881526020018781526020018673ffffffffffffffffffffffffffffffffffffffff1673ffffffffffffffffffffffffffffffffffffffff16815260200185815260200184815260200183815260200182810382528a818151815260200191508051906020019080838360005b8381101561032c578082015181840152602081019050610311565b50505050905090810190601f1680156103595780820380516001836020036101000a031916815260200191505b50995050505050505050505060405180910390f35b6000809054906101000a900473ffffffffffffffffffffffffffffffffffffffff1673ffffffffffffffffffffffffffffffffffffffff163373ffffffffffffffffffffffffffffffffffffffff161415156103c957600080fd5b600060038111156103d657fe5b60036000838152602001908152602001600020600301541415156103f957600080fd5b6001600381111561040657fe5b600360008381526020019081526020016000206003018190555050565b60606000806000806000806000600360008a81526020019081526020016000206000018054600181600116156101000203166002900480601f0160208091040260200160405190810160405280929190818152602001828054600181600116156101000203166002900480156104da5780601f106104af576101008083540402835291602001916104da565b820191906000526020600020905b8154815290600101906020018083116104bd57829003601f168201915b50505050509750600360008a8152602001908152602001600020600101549650600360008a8152602001908152602001600020600201549550600360008a8152602001908152602001600020600301549450600360008a8152602001908152602001600020600601549150600360008a8152602001908152602001600020600501549050878787878787878797509750975097509750975097509750919395975091939597565b806001600381111561058f57fe5b60036000838152602001908152602001600020600301541415156105b257600080fd5b81600360008281526020019081526020016000206005015460036000838152602001908152602001600020600601541015156105ed57600080fd5b600360008481526020019081526020016000206002015480341015151561061357600080fd5b7f3e32821836f4caf5b64b2c8c6b460049a9797526960d31502f7575b8da39d5ae846040518082815260200191505060405180910390a160036000858152602001908152602001600020600601600081548092919060010191905055506003600085815260200190815260200160002060050160008154809291906001900391905055506003600085815260200190815260200160002060040160009054906101000a900473ffffffffffffffffffffffffffffffffffffffff1673ffffffffffffffffffffffffffffffffffffffff166108fc60036000878152602001908152602001600020600201549081150290604051600060405180830381858888f19350505050158015610729573d6000803e3d6000fd5b5050505050565b7f419649940e0b33917111712c376ede21de03bf2ac35746f3c55c317cdf60579a6001546040518082815260200191505060405180910390a16101006040519081016040528084815260200160015481526020018381526020016000600381111561079757fe5b81526020013373ffffffffffffffffffffffffffffffffffffffff168152602001828152602001600081526020014281525060036000600154815260200190815260200160002060008201518160000190805190602001906107fa929190610991565b5060208201518160010155604082015181600201556060820151816003015560808201518160040160006101000a81548173ffffffffffffffffffffffffffffffffffffffff021916908373ffffffffffffffffffffffffffffffffffffffff16021790555060a0820151816005015560c0820151816006015560e082015181600701559050506001805401600181905550505050565b6003602052806000526040600020600091509050806000018054600181600116156101000203166002900480601f01602080910402602001604051908101604052809291908181526020018280546001816001161561010002031660029004801561093d5780601f106109125761010080835404028352916020019161093d565b820191906000526020600020905b81548152906001019060200180831161092057829003601f168201915b5050505050908060010154908060020154908060030154908060040160009054906101000a900473ffffffffffffffffffffffffffffffffffffffff16908060050154908060060154908060070154905088565b828054600181600116156101000203166002900490600052602060002090601f016020900481019282601f106109d257805160ff1916838001178555610a00565b82800160010185558215610a00579182015b828111156109ff5782518255916020019190600101906109e4565b5b509050610a0d9190610a11565b5090565b610a3391905b80821115610a2f576000816000905550600101610a17565b5090565b905600a165627a7a723058202ca00375e478ed4bcc72c7fde2c666a241fe6cb7b260a82bdaf343af6d2343700029",
  "source": "pragma solidity ^0.4.22;\r\n\r\ncontract DrugApprover {\r\n  address owner;\r\n  uint drugNumber;\r\n  uint approvalCost;\r\n\r\n  //All Drugs will have this structure \r\n    struct Drug {\r\n        string drugName;\r\n        uint drugNumber;\r\n        uint price;\r\n        uint status;\r\n        address companyAddress;\r\n        uint unitsAvailable;\r\n        uint unitsSold;\r\n        uint timeInSystem;\r\n    }\r\n\r\n  // Drugs will have these different status \r\n  enum DrugStatus {\r\n        Waiting_Approval,\r\n        Approved,\r\n        Denied,\r\n        Not_Available \r\n    }\r\n\r\n  mapping (uint => Drug) public drugs;\r\n\r\n// In order for certain things to happen with the drugs registered on the chain the owner must be involved \r\n  modifier isOwner () {\r\n    require(msg.sender == owner);\r\n    /*this means run the body of the function where the modifier is used: _; */\r\n    _;\r\n  }\r\n\r\n  event drugSubmittal(uint drugNum);\r\n  event Buy(uint drugNum);\r\n  \r\n  constructor() public{\r\n    owner = msg.sender;\r\n    drugNumber=0; \r\n    approvalCost=300;\r\n\r\n  }\r\n\r\n   // Drug must be an approved status in order to be sold     \r\n  modifier approved (uint _drugNumber) {\r\n    require(drugs[_drugNumber].status == uint (DrugStatus.Approved));\r\n    _;\r\n  }\r\n  modifier available (uint _drugNumber) {\r\n    require(drugs[_drugNumber].unitsSold < drugs[_drugNumber].unitsAvailable);\r\n    _;\r\n  }\r\n  modifier amountPaid(uint _price) { require(msg.value >= _price); _;}\r\n\r\n// function getRidOfDrug(uint _drugNumber){\r\n\r\n// }\r\n// Function to submit drugs \r\n  function submitDrugForApproval(string _name, uint _price, uint _unitsAvailable) public {\r\n    emit drugSubmittal(drugNumber);\r\n    drugs[drugNumber] = Drug({drugName: _name, unitsAvailable:_unitsAvailable, \r\n    drugNumber: drugNumber, price: _price, status: uint(DrugStatus.Waiting_Approval),\r\n     companyAddress: msg.sender,  unitsSold:0, timeInSystem: now});\r\n    drugNumber = drugNumber + 1;\r\n  }\r\n\r\n  \r\n  function buyDrug(uint _drugNum)\r\n    public\r\n    payable\r\n    approved(_drugNum)\r\n    available(_drugNum)\r\n    amountPaid(drugs[_drugNum].price)\r\n  {\r\n    emit Buy(_drugNum);\r\n    // drugs[_drugNum].buyer = msg.sender;\r\n    drugs[_drugNum].unitsSold++;\r\n    drugs[_drugNum].unitsAvailable--;\r\n    drugs[_drugNum].companyAddress.transfer(drugs[_drugNum].price);\r\n  }\r\n\r\n  // Approve Drug \r\n  function approveDrug(uint _drugNumber)\r\n    public\r\n    isOwner()\r\n  {\r\n    require(uint(drugs[_drugNumber].status) ==uint(DrugStatus.Waiting_Approval));\r\n    drugs[_drugNumber].status= uint(DrugStatus.Approved);\r\n\r\n  }\r\n\r\n\r\n // function to retrieve a drug\r\n    function getDrug(uint _drugNumber) public view returns (string drugName, uint drugNum, uint price, uint status, address seller,\r\n     address buyer, uint unitsSold, uint unitsAvailable) {\r\n    drugName = drugs[_drugNumber].drugName;\r\n    drugNum = drugs[_drugNumber].drugNumber;\r\n    price = drugs[_drugNumber].price;\r\n    status = uint(drugs[_drugNumber].status); \r\n    unitsSold = drugs[_drugNumber].unitsSold;\r\n    unitsAvailable = drugs[_drugNumber].unitsAvailable;\r\n    return (drugName, drugNum, price, status, seller, buyer, unitsSold, unitsAvailable);\r\n  }\r\n\r\n\r\n\r\n}\r\n",
  "sourcePath": "C:\\Users\\donhill\\Documents\\consensysDevCourse\\consensysFinalProject\\contracts\\DrugApprover.sol",
  "compiler": {
    "name": "solc",
    "version": "0.4.24+commit.e67f0147.Emscripten.clang"
  },
  "schemaVersion": "2.0.1",
  "updatedAt": "2018-08-28T05:58:53.341Z"
}